:100000000C9462000C948A000C948A000C948A0070
:100010000C948A000C948A000C948A000C948A0038
:100020000C948A000C948A000C948A000C948A0028
:100030000C948A000C948A000C948A000C948A0018
:100040000C94C5020C948A000C948A000C948A00CB
:100050000C948A000C948A000C948A000C948A00F8
:100060000C948A000C948A000000000024002700F1
:100070002A0000000000250028002B0000000000DE
:1000800023002600290004040404040404040202DA
:100090000202020203030303030301020408102007
:1000A0004080010204081020010204081020000012
:1000B0000008000201000003040700000000000027
:1000C0000000DE0311241FBECFEFD8E0DEBFCDBF9E
:1000D00011E0A0E0B1E0E4EDF9E002C005900D927E
:1000E000AC30B107D9F721E0ACE0B1E001C01D921E
:1000F000A733B207E1F710E0C2E6D0E004C02197D1
:10010000FE010E94DD04C136D107C9F70E940F032A
:100110000C94E8040C940000CF92DF92EF92FF92CF
:100120000F931F93CF93DF936C017A018B01C0E093
:10013000D0E0CE15DF0581F0D8016D918D01D6019B
:10014000ED91FC910190F081E02DC6010995892B7C
:1001500011F02196EECF7E01C701DF91CF911F9163
:100160000F91FF90EF90DF90CF900895833081F052
:1001700028F4813099F08230A1F008958730A9F0F9
:100180008830B9F08430D1F4809180008F7D03C035
:10019000809180008F7780938000089584B58F7759
:1001A00002C084B58F7D84BD08958091B0008F77A3
:1001B00003C08091B0008F7D8093B0000895CF93ED
:1001C000DF93282F30E0F901E255FF4F8491F901C8
:1001D000E656FF4FD491F901EA57FF4FC491CC2363
:1001E00091F081110E94B600EC2FF0E0EE0FFF1F9E
:1001F000E458FF4FA591B491EC91ED2381E090E09C
:1002000021F480E002C080E090E0DF91CF9108957A
:100210001F93CF93DF93282F30E0F901E255FF4F72
:100220008491F901E656FF4FD491F901EA57FF4F47
:10023000C491CC23C1F0162F81110E94B600EC2F7F
:10024000F0E0EE0FFF1FEE58FF4FA591B4919FB75E
:10025000F894111104C08C91D095D82302C0EC9170
:10026000DE2BDC939FBFDF91CF911F910895CF9339
:10027000DF9390E0FC01E656FF4F2491FC01EA5722
:10028000FF4F8491882361F190E0880F991FFC0152
:10029000E859FF4FC591D491FC01EE58FF4FA5914D
:1002A000B491611109C09FB7F89488812095822389
:1002B0008883EC912E230BC0623061F49FB7F894D1
:1002C0008881322F309583238883EC912E2B2C93B9
:1002D0009FBF06C08FB7F894E8812E2B28838FBF6D
:1002E000DF91CF9108953FB7F894809111019091DB
:1002F0001201A0911301B091140126B5A89B05C06D
:100300002F3F19F00196A11DB11D3FBFBA2FA92F94
:10031000982F8827820F911DA11DB11DBC01CD0111
:1003200042E0660F771F881F991F4A95D1F70895FD
:100330008F929F92AF92BF92CF92DF92EF92FF92F5
:100340006B017C010E9473014B015C01C114D1045B
:10035000E104F104F1F00E947301DC01CB01881982
:100360009909AA09BB09883E9340A105B10570F31C
:1003700021E0C21AD108E108F10888EE880E83E076
:10038000981EA11CB11CC114D104E104F10419F799
:10039000DDCFFF90EF90DF90CF90BF90AF909F9018
:1003A0008F900895CF93DF93EC0160E08E810E94DF
:1003B000080161E08E810E94080160E08E810E9448
:1003C00008018BE891E00197F1F7DF91CF91089553
:1003D000CF92DF92EF92FF920F931F93CF93DF9311
:1003E0006C017C0187E0E80EF11CC0E0D0E0062F34
:1003F00010E0B8010C2E02C0759567950A94E2F7DB
:100400006170F70181917F010E9408012196C4303B
:10041000D10579F7C601DF91CF911F910F91FF9020
:10042000EF90DF90CF900C94D201CF92DF92EF92B9
:10043000FF920F931F93CF93DF93EC01F62E642F5F
:100440008C810E9408018D818F3F19F060E00E942D
:1004500008018F850F2D10E084FF25C06E0187E015
:10046000C80ED11CE12CF12CB8010E2C02C07595E0
:1004700067950A94E2F76170F60181916F010E941D
:100480000801FFEFEF1AFF0A88E0E816F10461F7B0
:10049000CE01DF91CF911F910F91FF90EF90DF90F0
:1004A000CF900C94D201B80184E0759567958A9538
:1004B000E1F7CE010E94E8016F2DCE01DF91CF91CF
:1004C0001F910F91FF90EF90DF90CF900C94E80177
:1004D00041E00E94150281E090E00895089580E0D7
:1004E00090E008958F929F92AF92BF920F931F93C7
:1004F000CF93DF93CDB7DEB7A1970FB6F894DEBFE9
:100500000FBECDBF19A2423008F44AE08E010F5D44
:100510001F4F842E912CA12CB12CA50194010E9477
:10052000BB04E62FB901CA0101501109EA3014F4E5
:10053000E05D01C0E95CD801EC93232B242B252B33
:1005400061F70115110571F0F80101900020E9F73C
:100550003197AF01401B510BB8018FE191E00E9430
:100560008C0002C080E090E0A1960FB6F894DEBF48
:100570000FBECDBFDF91CF911F910F91BF90AF9074
:100580009F908F9008950E94E3041F920F920FB6E0
:100590000F9211242F933F938F939F93AF93BF9309
:1005A00080910D0190910E01A0910F01B091100169
:1005B00030910C0123E0230F2D3720F40196A11D6B
:1005C000B11D05C026E8230F0296A11DB11D209381
:1005D0000C0180930D0190930E01A0930F01B09335
:1005E00010018091110190911201A0911301B0911D
:1005F00014010196A11DB11D809311019093120168
:10060000A0931301B0931401BF91AF919F918F916B
:100610003F912F910F900FBE0F901F9018957894D7
:1006200084B5826084BD84B5816084BD85B58260F7
:1006300085BD85B5816085BD80916E0081608093A8
:100640006E00109281008091810082608093810011
:100650008091810081608093810080918000816021
:10066000809380008091B10084608093B10080917C
:10067000B00081608093B00080917A0084608093A4
:100680007A0080917A00826080937A0080917A006B
:10069000816080937A0080917A00806880937A00EC
:1006A0001092C10060E086E00E94370160E087E0C0
:1006B0000E943701CBE3DFE100E010E040E061E0C1
:1006C0008FE191E00E941502CE010197F1F786E0DB
:1006D0000E94DF006C0190931E0180931D0187E052
:1006E0000E94DF007C0190931C0180931B0180918C
:1006F000190190911A01C816D90699F081E0C8161F
:10070000D10449F4809117019091180101969093BA
:1007100018018093170162E370E080E090E00E948E
:100720009801D0921A01C0921901809115019091FF
:100730001601E816F90699F081E0E816F10449F48B
:10074000809117019091180101979093180180935F
:10075000170162E370E080E090E00E949801F0925F
:100760001601E0921501C0901701D09018010D2CD0
:10077000000CEE08FF08F7FE0FC041E06DE28FE1CC
:1007800091E00E94150266277727CB016C197D093D
:100790008E099F094AE003C04AE0C701B6010E94E2
:1007A000720266E970E080E090E00E949801011515
:1007B000110509F483CF0E94000080CFCF93DF930F
:1007C000109222011092210184E091E09093200187
:1007D00080931F018CE0809323018FEF809324018D
:1007E0008BE08093250185E08093260184E080934F
:1007F000270183E08093280182E0809329011092F1
:100800002A0110922B0110922C0110922D011092AE
:100810002E0181E0809332011092330180E48093B5
:10082000340180E18093350180E58093360161E0F9
:100830008CE00E943701809124018F3F19F061E024
:100840000E94370161E0809125010E943701CFE1CC
:10085000D1E09E012F51314080912E0184FD03C0D3
:1008600084E090E002C088E090E0219628173907E4
:100870002CF461E08E810E943701EBCF8BE39DE089
:100880000197F1F760E0809123010E94080160E088
:10089000809125010E940801809124018F3F19F069
:1008A00060E00E94080160912E0164FD20C063E0B9
:1008B0008FE191E00E94E801CBE4D6E4CE010197FC
:1008C000F1F763E08FE191E00E94E8012197F1F7F1
:1008D00063E08FE191E00E94E80183E592E00197F7
:1008E000F1F762E08FE191E00E94E8011EC06062D2
:1008F00040E08FE191E00E9415028BE496E40197BD
:10090000F1F760912E01606240E08FE191E00E947A
:10091000150283E592E00197F1F760912E01606284
:1009200040E08FE191E00E94150260912E0160622B
:1009300040E08FE191E00E94150284E080932F0156
:1009400040E06CE08FE191E00E94150240E061E040
:100950008FE191E00E9415028BE39FE10197F1F78F
:1009600082E08093300140E066E08FE191E0DF912A
:10097000CF910C941502A1E21A2EAA1BBB1BFD01FC
:100980000DC0AA1FBB1FEE1FFF1FA217B307E4076E
:10099000F50720F0A21BB30BE40BF50B661F771FC6
:1009A000881F991F1A9469F76095709580959095A6
:1009B0009B01AC01BD01CF010895EE0FFF1F059013
:1009C000F491E02D099481E090E0F8940C94E8040F
:0409D000F894FFCFC9
:0C09D4000000000068028C006F026E0240
:107E0000112484B714BE81FFF0D085E080938100F7
:107E100082E08093C00088E18093C10086E0809377
:107E2000C20080E18093C4008EE0C9D0259A86E02C
:107E300020E33CEF91E0309385002093840096BBD3
:107E4000B09BFECF1D9AA8958150A9F7CC24DD24C4
:107E500088248394B5E0AB2EA1E19A2EF3E0BF2EE7
:107E6000A2D0813461F49FD0082FAFD0023811F036
:107E7000013811F484E001C083E08DD089C08234E0
:107E800011F484E103C0853419F485E0A6D080C0E4
:107E9000853579F488D0E82EFF2485D0082F10E0AE
:107EA000102F00270E291F29000F111F8ED06801E7
:107EB0006FC0863521F484E090D080E0DECF843638
:107EC00009F040C070D06FD0082F6DD080E0C81688
:107ED00080E7D80618F4F601B7BEE895C0E0D1E017
:107EE00062D089930C17E1F7F0E0CF16F0E7DF06D8
:107EF00018F0F601B7BEE89568D007B600FCFDCFD4
:107F0000A601A0E0B1E02C9130E011968C91119780
:107F100090E0982F8827822B932B1296FA010C0160
:107F200087BEE89511244E5F5F4FF1E0A038BF0790
:107F300051F7F601A7BEE89507B600FCFDCF97BE46
:107F4000E89526C08437B1F42ED02DD0F82E2BD052
:107F50003CD0F601EF2C8F010F5F1F4F84911BD097
:107F6000EA94F801C1F70894C11CD11CFA94CF0C13
:107F7000D11C0EC0853739F428D08EE10CD085E9AC
:107F80000AD08FE07ACF813511F488E018D01DD067
:107F900080E101D065CF982F8091C00085FFFCCF94
:107FA0009093C60008958091C00087FFFCCF809118
:107FB000C00084FD01C0A8958091C6000895E0E648
:107FC000F0E098E1908380830895EDDF803219F02E
:107FD00088E0F5DFFFCF84E1DECF1F93182FE3DFCA
:107FE0001150E9F7F2DF1F91089580E0E8DFEE27F6
:047FF000FF270994CA
:027FFE00040479
:0400000300007E007B
:00000001FF
